:020000040100F9
:10000000370501001305F5FF13000000B705FF0FCA
:100010003306B5003705FFFF130515001300000078
:10002000B705FF0F3306B500370501001305F5FFCF
:10003000B705F0FF938515003306B5001305500092
:1000400013000000B70500809385F5FF3306B50067
:100050001305B0FF1300000013000000B705008077
:100060003306B50013000000130000001300000069
:100070003705FF0F1306F50F1300000013000000F3
:10008000370500801305F5FF130655001300000027
:100090001300000013000000370500801306B5FFB1
:1000A000370501001305F5FF13000000B705FF0F2A
:1000B0003386A5403705FFFF130515001300000028
:1000C000B705FF0F3386A5401305B0FF13000000EE
:1000D000B70500809385F5FF3386A54013055000D2
:1000E0001300000013000000B70500803386A54010
:1000F000370501001305F5FF13000000930580008C
:100100003316B5003705FFFF130000001300000091
:10011000930580003316B500370501001305F5FF80
:1001200013000000930580FE3316B5001300000095
:1001300013000000370501001305F5FF13168500B5
:100140001300000013000000130000003705FFFF3C
:1001500013168500370501001305F5FFB7050100EB
:10016000938505FF33A6A500370501001305F5FFAC
:10017000B7050100938505FF3326B500370501005B
:100180001305F5FFB70501009385F5FF33A6A5001C
:100190001300000013000000370501001305F5FFF0
:1001A0001326550013000000130000001300000088
:1001B0001305A0001326F500130000001300000033
:1001C000130000001305A0001326A5001305F0FF7F
:1001D000B70500109385F5FF1300000033B6A500A6
:1001E0001300000013000000130000001305F0FFCF
:1001F00013B6550037F5F0F01305050FB715F0F0FD
:100200009385F5F033C6A50013000000130000002D
:10021000371500001305F5F01346057F3705FFFF7E
:100220001300000013000000930580003356B50052
:10023000370501001305F5FF13000000930580004A
:100240003356B50013000000130000003705FFFF10
:10025000930580FE3356B500130000001300000024
:10026000130000003705FFFF135685001300000040
:1002700013000000370501001305F5FF1356850034
:1002800013000000130000003705FFFF93058000F6
:100290003356B54013000000130000003705FF0F70
:1002A000930580003356B540130000001300000092
:1002B000130000003705FFFF1356854013000000B0
:1002C00013000000130000003705FF0F1356854090
:1002D00037F5F0F01305050F13000000B705FFFF19
:1002E00033E6A5001300000013000000B7F5F0F09E
:1002F0009385050F13E6057F37F5F0F01305050F1D
:10030000130000009305F0FF33F6A5001300000072
:1003100013000000B7F5F0F09385050F13F6057F85
:0400000501000000F6
:00000001FF
