:020000040100F9
:1000000033040100B7F7F8469387578C2326F4F69C
:10001000B7670C46938757082328F4F6B747F8705C
:100020009387A7B8232AF4F6B7874B2893873730EE
:10003000232CF4F6B7173E5193874745232EF4F649
:10004000B7F721F6938727D22320F4F8B707253195
:100050009387D7652322F4F8B747A8119387D7A5CC
:100060002324F4F8B77727D49387B7862326F4F8A8
:10007000B7E73A719387D7822328F4F8B737794BDB
:10008000938797F9232AF4F8B7A799279387D74D31
:10009000232CF4F8B72790A7938797C4232EF4F85E
:1000A000B787DEDE9387A7712320F4FAB737C0360F
:1000B000938767192322F4FAB7C7EFA7938797248A
:1000C0002324F4FAB797A761938787BB2326F4FA12
:1000D000B7270A3B9387B7D22328F4FAB7D7BF4D87
:1000E000938767A7232AF4FAB72716AE9387771664
:1000F000232CF4FAB777D7309387A7B0232EF4FADE
:10010000B7271943938747302320F4FCB717CCF661
:10011000938717432322F4FCB76704659387073856
:100120002324F4FCB7071000938707018397070087
:100130002322F4FE232004FE232E04FC232C04FCA3
:10014000232A04FC232804FC232604FC832744FEE2
:100150002326F4FE930710002324F4FE6F00400CC6
:10016000032744FD8327C4FEB347F7002320F4FE92
:10017000032704FE8327C4FEB316F700130600020C
:1001800093F7F701B387C740B357F700B387D7009A
:10019000232EF4FC832784FE939717009397270060
:1001A000938707FFB387870003A747F78327C4FD1B
:1001B000B307F700232CF4FC0327C4FE832784FD38
:1001C000B347F7002328F4FC832704FD832684FD2E
:1001D000B395D7001306000293F6F601B386C64026
:1001E000B356D700B386B6002326D4FC832784FEFB
:1001F000939717009387170093972700938707FF1C
:10020000B387870003A747F78327C4FCB307F7002A
:100210002326F4FE832784FE938717002324F4FE0D
:10022000032784FE9307C000E3DCE7F20327C4FE44
:0C023000B70710009387470123A0E700E8
:0400000501000000F6
:00000001FF
